{
  "_format": "hh-sol-artifact-1",
  "contractName": "multi",
  "sourceName": "contracts/multi.sol",
  "abi": [
    {
      "inputs": [
        {
          "internalType": "address[]",
          "name": "_owners",
          "type": "address[]"
        }
      ],
      "stateMutability": "nonpayable",
      "type": "constructor"
    },
    {
      "anonymous": false,
      "inputs": [
        {
          "indexed": true,
          "internalType": "address",
          "name": "previousAdmin",
          "type": "address"
        },
        {
          "indexed": true,
          "internalType": "address",
          "name": "newAdmin",
          "type": "address"
        }
      ],
      "name": "AdminTransferred",
      "type": "event"
    },
    {
      "anonymous": false,
      "inputs": [
        {
          "indexed": true,
          "internalType": "address",
          "name": "sender",
          "type": "address"
        },
        {
          "indexed": true,
          "internalType": "uint256",
          "name": "transactionId",
          "type": "uint256"
        }
      ],
      "name": "Confirmation",
      "type": "event"
    },
    {
      "anonymous": false,
      "inputs": [
        {
          "indexed": true,
          "internalType": "address",
          "name": "sender",
          "type": "address"
        },
        {
          "indexed": false,
          "internalType": "uint256",
          "name": "value",
          "type": "uint256"
        }
      ],
      "name": "Deposit",
      "type": "event"
    },
    {
      "anonymous": false,
      "inputs": [
        {
          "indexed": true,
          "internalType": "uint256",
          "name": "transactionId",
          "type": "uint256"
        }
      ],
      "name": "Execution",
      "type": "event"
    },
    {
      "anonymous": false,
      "inputs": [
        {
          "indexed": true,
          "internalType": "uint256",
          "name": "transactionId",
          "type": "uint256"
        }
      ],
      "name": "ExecutionFailure",
      "type": "event"
    },
    {
      "anonymous": false,
      "inputs": [
        {
          "indexed": true,
          "internalType": "address",
          "name": "owner",
          "type": "address"
        }
      ],
      "name": "OwnerAddition",
      "type": "event"
    },
    {
      "anonymous": false,
      "inputs": [
        {
          "indexed": true,
          "internalType": "address",
          "name": "owner",
          "type": "address"
        }
      ],
      "name": "OwnerRemoval",
      "type": "event"
    },
    {
      "anonymous": false,
      "inputs": [
        {
          "indexed": true,
          "internalType": "address",
          "name": "sender",
          "type": "address"
        },
        {
          "indexed": true,
          "internalType": "uint256",
          "name": "transactionId",
          "type": "uint256"
        }
      ],
      "name": "Revocation",
      "type": "event"
    },
    {
      "anonymous": false,
      "inputs": [
        {
          "indexed": true,
          "internalType": "uint256",
          "name": "transactionId",
          "type": "uint256"
        }
      ],
      "name": "Submission",
      "type": "event"
    },
    {
      "anonymous": false,
      "inputs": [
        {
          "indexed": false,
          "internalType": "uint256",
          "name": "authorisation",
          "type": "uint256"
        }
      ],
      "name": "authorisationUpdate",
      "type": "event"
    },
    {
      "anonymous": false,
      "inputs": [
        {
          "indexed": false,
          "internalType": "address",
          "name": "sender",
          "type": "address"
        },
        {
          "indexed": false,
          "internalType": "uint256",
          "name": "amount",
          "type": "uint256"
        },
        {
          "indexed": false,
          "internalType": "uint256",
          "name": "timeOfTransaction",
          "type": "uint256"
        }
      ],
      "name": "fundsDeposited",
      "type": "event"
    },
    {
      "anonymous": false,
      "inputs": [
        {
          "indexed": false,
          "internalType": "address",
          "name": "sender",
          "type": "address"
        },
        {
          "indexed": false,
          "internalType": "uint256",
          "name": "amount",
          "type": "uint256"
        },
        {
          "indexed": false,
          "internalType": "uint256",
          "name": "timeOfTransaction",
          "type": "uint256"
        }
      ],
      "name": "fundsWithdrawed",
      "type": "event"
    },
    {
      "stateMutability": "payable",
      "type": "fallback"
    },
    {
      "inputs": [
        {
          "internalType": "uint256",
          "name": "",
          "type": "uint256"
        }
      ],
      "name": "_validTransactions",
      "outputs": [
        {
          "internalType": "bool",
          "name": "executed",
          "type": "bool"
        },
        {
          "internalType": "address payable",
          "name": "toAddress",
          "type": "address"
        },
        {
          "internalType": "uint256",
          "name": "value",
          "type": "uint256"
        },
        {
          "internalType": "bytes",
          "name": "data",
          "type": "bytes"
        }
      ],
      "stateMutability": "view",
      "type": "function"
    },
    {
      "inputs": [
        {
          "internalType": "address",
          "name": "owner",
          "type": "address"
        }
      ],
      "name": "addOwner",
      "outputs": [],
      "stateMutability": "nonpayable",
      "type": "function"
    },
    {
      "inputs": [],
      "name": "admin",
      "outputs": [
        {
          "internalType": "address",
          "name": "",
          "type": "address"
        }
      ],
      "stateMutability": "view",
      "type": "function"
    },
    {
      "inputs": [],
      "name": "authorisation",
      "outputs": [
        {
          "internalType": "uint256",
          "name": "",
          "type": "uint256"
        }
      ],
      "stateMutability": "view",
      "type": "function"
    },
    {
      "inputs": [
        {
          "internalType": "uint256",
          "name": "txnId",
          "type": "uint256"
        }
      ],
      "name": "confirmTransaction",
      "outputs": [],
      "stateMutability": "nonpayable",
      "type": "function"
    },
    {
      "inputs": [
        {
          "internalType": "uint256",
          "name": "",
          "type": "uint256"
        },
        {
          "internalType": "address",
          "name": "",
          "type": "address"
        }
      ],
      "name": "confirmations",
      "outputs": [
        {
          "internalType": "bool",
          "name": "",
          "type": "bool"
        }
      ],
      "stateMutability": "view",
      "type": "function"
    },
    {
      "inputs": [],
      "name": "deposit",
      "outputs": [],
      "stateMutability": "payable",
      "type": "function"
    },
    {
      "inputs": [
        {
          "internalType": "uint256",
          "name": "txnId",
          "type": "uint256"
        }
      ],
      "name": "executeTransaction",
      "outputs": [],
      "stateMutability": "nonpayable",
      "type": "function"
    },
    {
      "inputs": [],
      "name": "getOwners",
      "outputs": [
        {
          "internalType": "address[]",
          "name": "",
          "type": "address[]"
        }
      ],
      "stateMutability": "view",
      "type": "function"
    },
    {
      "inputs": [],
      "name": "getQuorum",
      "outputs": [
        {
          "internalType": "uint256",
          "name": "",
          "type": "uint256"
        }
      ],
      "stateMutability": "view",
      "type": "function"
    },
    {
      "inputs": [],
      "name": "getValidTransactions",
      "outputs": [
        {
          "components": [
            {
              "internalType": "bool",
              "name": "executed",
              "type": "bool"
            },
            {
              "internalType": "address payable",
              "name": "toAddress",
              "type": "address"
            },
            {
              "internalType": "uint256",
              "name": "value",
              "type": "uint256"
            },
            {
              "internalType": "bytes",
              "name": "data",
              "type": "bytes"
            }
          ],
          "internalType": "struct multi.Transaction[]",
          "name": "",
          "type": "tuple[]"
        }
      ],
      "stateMutability": "view",
      "type": "function"
    },
    {
      "inputs": [
        {
          "internalType": "address",
          "name": "",
          "type": "address"
        }
      ],
      "name": "isOwner",
      "outputs": [
        {
          "internalType": "bool",
          "name": "",
          "type": "bool"
        }
      ],
      "stateMutability": "view",
      "type": "function"
    },
    {
      "inputs": [
        {
          "internalType": "uint256",
          "name": "",
          "type": "uint256"
        }
      ],
      "name": "owners",
      "outputs": [
        {
          "internalType": "address",
          "name": "",
          "type": "address"
        }
      ],
      "stateMutability": "view",
      "type": "function"
    },
    {
      "inputs": [
        {
          "internalType": "address",
          "name": "owner",
          "type": "address"
        }
      ],
      "name": "removeOwner",
      "outputs": [],
      "stateMutability": "nonpayable",
      "type": "function"
    },
    {
      "inputs": [],
      "name": "renounceAdmin",
      "outputs": [],
      "stateMutability": "nonpayable",
      "type": "function"
    },
    {
      "inputs": [
        {
          "internalType": "uint256",
          "name": "txnId",
          "type": "uint256"
        }
      ],
      "name": "revokeTransaction",
      "outputs": [],
      "stateMutability": "nonpayable",
      "type": "function"
    },
    {
      "inputs": [
        {
          "internalType": "address payable",
          "name": "toAddress",
          "type": "address"
        },
        {
          "internalType": "uint256",
          "name": "value",
          "type": "uint256"
        },
        {
          "internalType": "bytes",
          "name": "data",
          "type": "bytes"
        }
      ],
      "name": "submitTransaction",
      "outputs": [
        {
          "internalType": "uint256",
          "name": "txnId",
          "type": "uint256"
        }
      ],
      "stateMutability": "nonpayable",
      "type": "function"
    },
    {
      "inputs": [
        {
          "internalType": "address",
          "name": "newAdmin",
          "type": "address"
        }
      ],
      "name": "transferAdmin",
      "outputs": [],
      "stateMutability": "nonpayable",
      "type": "function"
    },
    {
      "inputs": [
        {
          "internalType": "address",
          "name": "_from",
          "type": "address"
        },
        {
          "internalType": "address",
          "name": "_to",
          "type": "address"
        }
      ],
      "name": "transferOwner",
      "outputs": [],
      "stateMutability": "nonpayable",
      "type": "function"
    },
    {
      "inputs": [],
      "name": "txnCount",
      "outputs": [
        {
          "internalType": "uint256",
          "name": "",
          "type": "uint256"
        }
      ],
      "stateMutability": "view",
      "type": "function"
    },
    {
      "inputs": [
        {
          "internalType": "uint256",
          "name": "",
          "type": "uint256"
        }
      ],
      "name": "txns",
      "outputs": [
        {
          "internalType": "bool",
          "name": "executed",
          "type": "bool"
        },
        {
          "internalType": "address payable",
          "name": "toAddress",
          "type": "address"
        },
        {
          "internalType": "uint256",
          "name": "value",
          "type": "uint256"
        },
        {
          "internalType": "bytes",
          "name": "data",
          "type": "bytes"
        }
      ],
      "stateMutability": "view",
      "type": "function"
    },
    {
      "inputs": [
        {
          "internalType": "uint256",
          "name": "amount",
          "type": "uint256"
        }
      ],
      "name": "withdraw",
      "outputs": [],
      "stateMutability": "nonpayable",
      "type": "function"
    },
    {
      "stateMutability": "payable",
      "type": "receive"
    }
  ],
  "bytecode": "0x60806040523480156200001157600080fd5b5060405162004320380380620043208339818101604052810190620000379190620005ec565b80336000806101000a81548173ffffffffffffffffffffffffffffffffffffffff021916908373ffffffffffffffffffffffffffffffffffffffff160217905550600381511015620000c0576040517f08c379a0000000000000000000000000000000000000000000000000000000008152600401620000b790620006c4565b60405180910390fd5b60005b81518110156200015857600160026000848481518110620000e957620000e8620006e6565b5b602002602001015173ffffffffffffffffffffffffffffffffffffffff1673ffffffffffffffffffffffffffffffffffffffff16815260200190815260200160002060006101000a81548160ff02191690831515021790555080806200014f906200074e565b915050620000c3565b5080600190805190602001906200017192919062000350565b5060006200018c600180549050603c6200032060201b60201c565b9050620001a18160646200033860201b60201c565b6003819055505050336000806101000a81548173ffffffffffffffffffffffffffffffffffffffff021916908373ffffffffffffffffffffffffffffffffffffffff16021790555060038151101562000231576040517f08c379a00000000000000000000000000000000000000000000000000000000081526004016200022890620006c4565b60405180910390fd5b60005b8151811015620002c9576001600260008484815181106200025a5762000259620006e6565b5b602002602001015173ffffffffffffffffffffffffffffffffffffffff1673ffffffffffffffffffffffffffffffffffffffff16815260200190815260200160002060006101000a81548160ff0219169083151502179055508080620002c0906200074e565b91505062000234565b508060019080519060200190620002e292919062000350565b506000620002fd600180549050603c6200032060201b60201c565b9050620003128160646200033860201b60201c565b60038190555050506200084d565b600081836200033091906200079b565b905092915050565b6000818362000348919062000815565b905092915050565b828054828255906000526020600020908101928215620003cc579160200282015b82811115620003cb5782518260006101000a81548173ffffffffffffffffffffffffffffffffffffffff021916908373ffffffffffffffffffffffffffffffffffffffff1602179055509160200191906001019062000371565b5b509050620003db9190620003df565b5090565b5b80821115620003fa576000816000905550600101620003e0565b5090565b6000604051905090565b600080fd5b600080fd5b600080fd5b6000601f19601f8301169050919050565b7f4e487b7100000000000000000000000000000000000000000000000000000000600052604160045260246000fd5b620004628262000417565b810181811067ffffffffffffffff8211171562000484576200048362000428565b5b80604052505050565b600062000499620003fe565b9050620004a7828262000457565b919050565b600067ffffffffffffffff821115620004ca57620004c962000428565b5b602082029050602081019050919050565b600080fd5b600073ffffffffffffffffffffffffffffffffffffffff82169050919050565b60006200050d82620004e0565b9050919050565b6200051f8162000500565b81146200052b57600080fd5b50565b6000815190506200053f8162000514565b92915050565b60006200055c6200055684620004ac565b6200048d565b90508083825260208201905060208402830185811115620005825762000581620004db565b5b835b81811015620005af57806200059a88826200052e565b84526020840193505060208101905062000584565b5050509392505050565b600082601f830112620005d157620005d062000412565b5b8151620005e384826020860162000545565b91505092915050565b60006020828403121562000605576200060462000408565b5b600082015167ffffffffffffffff8111156200062657620006256200040d565b5b6200063484828501620005b9565b91505092915050565b600082825260208201905092915050565b7f5468657265206e65656420746f2062652061746c65617374203320696e69746960008201527f616c207369676e61746f7269657320666f7220746869732077616c6c65740000602082015250565b6000620006ac603e836200063d565b9150620006b9826200064e565b604082019050919050565b60006020820190508181036000830152620006df816200069d565b9050919050565b7f4e487b7100000000000000000000000000000000000000000000000000000000600052603260045260246000fd5b7f4e487b7100000000000000000000000000000000000000000000000000000000600052601160045260246000fd5b6000819050919050565b60006200075b8262000744565b91507fffffffffffffffffffffffffffffffffffffffffffffffffffffffffffffffff820362000790576200078f62000715565b5b600182019050919050565b6000620007a88262000744565b9150620007b58362000744565b9250828202620007c58162000744565b91508282048414831517620007df57620007de62000715565b5b5092915050565b7f4e487b7100000000000000000000000000000000000000000000000000000000600052601260045260246000fd5b6000620008228262000744565b91506200082f8362000744565b925082620008425762000841620007e6565b5b828204905092915050565b613ac3806200085d6000396000f3fe6080604052600436106101395760003560e01c806378ce1365116100ab578063c64274741161006f578063c6427474146104b6578063d0e30db0146104f3578063daa10560146104fd578063dcf506e41461053d578063ee22610b1461057d578063f851a440146105a657610198565b806378ce1365146103f55780638bad0c0a14610420578063a0e67e2b14610437578063c01a8c8414610462578063c26c12eb1461048b57610198565b806331678cf6116100fd57806331678cf6146102e95780633411c81c146103125780637065cb481461034f57806371d0618d14610378578063735631ad146103a357806375829def146103cc57610198565b8063025e7c27146101f2578063173825d91461022f57806320ea8299146102585780632e1a7d4d146102835780632f54bf6e146102ac57610198565b36610198576000341115610196573373ffffffffffffffffffffffffffffffffffffffff167fe1fffcc4923d04b559f4d29a8bfc6cda04eb5b0d3c460751c2402c5c5cc9109c3460405161018d919061288f565b60405180910390a25b005b60003411156101f0573373ffffffffffffffffffffffffffffffffffffffff167fe1fffcc4923d04b559f4d29a8bfc6cda04eb5b0d3c460751c2402c5c5cc9109c346040516101e7919061288f565b60405180910390a25b005b3480156101fe57600080fd5b50610219600480360381019061021491906128ea565b6105d1565b6040516102269190612958565b60405180910390f35b34801561023b57600080fd5b506102566004803603810190610251919061299f565b610610565b005b34801561026457600080fd5b5061026d610a24565b60405161027a9190612bcc565b60405180910390f35b34801561028f57600080fd5b506102aa60048036038101906102a591906128ea565b610b90565b005b3480156102b857600080fd5b506102d360048036038101906102ce919061299f565b610d4c565b6040516102e09190612bfd565b60405180910390f35b3480156102f557600080fd5b50610310600480360381019061030b9190612c18565b610d6c565b005b34801561031e57600080fd5b5061033960048036038101906103349190612c58565b611237565b6040516103469190612bfd565b60405180910390f35b34801561035b57600080fd5b506103766004803603810190610371919061299f565b611266565b005b34801561038457600080fd5b5061038d61158a565b60405161039a919061288f565b60405180910390f35b3480156103af57600080fd5b506103ca60048036038101906103c591906128ea565b611590565b005b3480156103d857600080fd5b506103f360048036038101906103ee919061299f565b611890565b005b34801561040157600080fd5b5061040a6119db565b604051610417919061288f565b60405180910390f35b34801561042c57600080fd5b506104356119e1565b005b34801561044357600080fd5b5061044c611b2d565b6040516104599190612d56565b60405180910390f35b34801561046e57600080fd5b50610489600480360381019061048491906128ea565b611bbb565b005b34801561049757600080fd5b506104a0611e58565b6040516104ad919061288f565b60405180910390f35b3480156104c257600080fd5b506104dd60048036038101906104d89190612ed9565b611e62565b6040516104ea919061288f565b60405180910390f35b6104fb61202c565b005b34801561050957600080fd5b50610524600480360381019061051f91906128ea565b6121c5565b6040516105349493929190612fa1565b60405180910390f35b34801561054957600080fd5b50610564600480360381019061055f91906128ea565b6122aa565b6040516105749493929190612fa1565b60405180910390f35b34801561058957600080fd5b506105a4600480360381019061059f91906128ea565b61239f565b005b3480156105b257600080fd5b506105bb6127c8565b6040516105c89190612958565b60405180910390f35b600181815481106105e157600080fd5b906000526020600020016000915054906101000a900473ffffffffffffffffffffffffffffffffffffffff1681565b60008054906101000a900473ffffffffffffffffffffffffffffffffffffffff1673ffffffffffffffffffffffffffffffffffffffff163373ffffffffffffffffffffffffffffffffffffffff161461069e576040517f08c379a00000000000000000000000000000000000000000000000000000000081526004016106959061304a565b60405180910390fd5b80600073ffffffffffffffffffffffffffffffffffffffff168173ffffffffffffffffffffffffffffffffffffffff160361070e576040517f08c379a0000000000000000000000000000000000000000000000000000000008152600401610705906130dc565b60405180910390fd5b8160011515600260008373ffffffffffffffffffffffffffffffffffffffff1673ffffffffffffffffffffffffffffffffffffffff16815260200190815260200160002060009054906101000a900460ff161515146107a2576040517f08c379a000000000000000000000000000000000000000000000000000000000815260040161079990613148565b60405180910390fd5b6000600260008573ffffffffffffffffffffffffffffffffffffffff1673ffffffffffffffffffffffffffffffffffffffff16815260200190815260200160002060006101000a81548160ff02191690831515021790555060005b6001808054905061080e9190613197565b811015610948578373ffffffffffffffffffffffffffffffffffffffff16600182815481106108405761083f6131cb565b5b9060005260206000200160009054906101000a900473ffffffffffffffffffffffffffffffffffffffff1673ffffffffffffffffffffffffffffffffffffffff16036109355760018080805490506108989190613197565b815481106108a9576108a86131cb565b5b9060005260206000200160009054906101000a900473ffffffffffffffffffffffffffffffffffffffff16600182815481106108e8576108e76131cb565b5b9060005260206000200160006101000a81548173ffffffffffffffffffffffffffffffffffffffff021916908373ffffffffffffffffffffffffffffffffffffffff160217905550610948565b8080610940906131fa565b9150506107fd565b50600180548061095b5761095a613242565b5b6001900381819060005260206000200160006101000a81549073ffffffffffffffffffffffffffffffffffffffff02191690559055610a1f6001805480602002602001604051908101604052809291908181526020018280548015610a1557602002820191906000526020600020905b8160009054906101000a900473ffffffffffffffffffffffffffffffffffffffff1673ffffffffffffffffffffffffffffffffffffffff16815260200190600101908083116109cb575b50505050506127ec565b505050565b60606007805480602002602001604051908101604052809291908181526020016000905b82821015610b8757838290600052602060002090600302016040518060800160405290816000820160009054906101000a900460ff161515151581526020016000820160019054906101000a900473ffffffffffffffffffffffffffffffffffffffff1673ffffffffffffffffffffffffffffffffffffffff1673ffffffffffffffffffffffffffffffffffffffff16815260200160018201548152602001600282018054610af6906132a0565b80601f0160208091040260200160405190810160405280929190818152602001828054610b22906132a0565b8015610b6f5780601f10610b4457610100808354040283529160200191610b6f565b820191906000526020600020905b815481529060010190602001808311610b5257829003601f168201915b50505050508152505081526020019060010190610a48565b50505050905090565b3360011515600260008373ffffffffffffffffffffffffffffffffffffffff1673ffffffffffffffffffffffffffffffffffffffff16815260200190815260200160002060009054906101000a900460ff16151514610c24576040517f08c379a0000000000000000000000000000000000000000000000000000000008152600401610c1b90613343565b60405180910390fd5b81600460003373ffffffffffffffffffffffffffffffffffffffff1673ffffffffffffffffffffffffffffffffffffffff168152602001908152602001600020541015610c7057600080fd5b81600460003373ffffffffffffffffffffffffffffffffffffffff1673ffffffffffffffffffffffffffffffffffffffff1681526020019081526020016000206000828254610cbf9190613197565b925050819055503373ffffffffffffffffffffffffffffffffffffffff166108fc839081150290604051600060405180830381858888f19350505050158015610d0c573d6000803e3d6000fd5b507f0792a03eb0f5119772916cb557cdfbe62ed98b1b4c949cd4b8cbaf950d5d08ab338342604051610d4093929190613363565b60405180910390a15050565b60026020528060005260406000206000915054906101000a900460ff1681565b60008054906101000a900473ffffffffffffffffffffffffffffffffffffffff1673ffffffffffffffffffffffffffffffffffffffff163373ffffffffffffffffffffffffffffffffffffffff1614610dfa576040517f08c379a0000000000000000000000000000000000000000000000000000000008152600401610df19061304a565b60405180910390fd5b81600073ffffffffffffffffffffffffffffffffffffffff168173ffffffffffffffffffffffffffffffffffffffff1603610e6a576040517f08c379a0000000000000000000000000000000000000000000000000000000008152600401610e61906130dc565b60405180910390fd5b81600073ffffffffffffffffffffffffffffffffffffffff168173ffffffffffffffffffffffffffffffffffffffff1603610eda576040517f08c379a0000000000000000000000000000000000000000000000000000000008152600401610ed1906130dc565b60405180910390fd5b8360011515600260008373ffffffffffffffffffffffffffffffffffffffff1673ffffffffffffffffffffffffffffffffffffffff16815260200190815260200160002060009054906101000a900460ff16151514610f6e576040517f08c379a0000000000000000000000000000000000000000000000000000000008152600401610f6590613148565b60405180910390fd5b8360001515600260008373ffffffffffffffffffffffffffffffffffffffff1673ffffffffffffffffffffffffffffffffffffffff16815260200190815260200160002060009054906101000a900460ff16151514611002576040517f08c379a0000000000000000000000000000000000000000000000000000000008152600401610ff9906133e6565b60405180910390fd5b60005b6001805490508110156110f8578673ffffffffffffffffffffffffffffffffffffffff166001828154811061103d5761103c6131cb565b5b9060005260206000200160009054906101000a900473ffffffffffffffffffffffffffffffffffffffff1673ffffffffffffffffffffffffffffffffffffffff16036110e5578560018281548110611098576110976131cb565b5b9060005260206000200160006101000a81548173ffffffffffffffffffffffffffffffffffffffff021916908373ffffffffffffffffffffffffffffffffffffffff1602179055506110f8565b80806110f0906131fa565b915050611005565b506000600260008873ffffffffffffffffffffffffffffffffffffffff1673ffffffffffffffffffffffffffffffffffffffff16815260200190815260200160002060006101000a81548160ff0219169083151502179055506001600260008773ffffffffffffffffffffffffffffffffffffffff1673ffffffffffffffffffffffffffffffffffffffff16815260200190815260200160002060006101000a81548160ff0219169083151502179055508573ffffffffffffffffffffffffffffffffffffffff167f8001553a916ef2f495d26a907cc54d96ed840d7bda71e73194bf5a9df7a76b9060405160405180910390a28473ffffffffffffffffffffffffffffffffffffffff167ff39e6e1eb0edcf53c221607b54b00cd28f3196fed0a24994dc308b8f611b682d60405160405180910390a2505050505050565b60086020528160005260406000206020528060005260406000206000915091509054906101000a900460ff1681565b60008054906101000a900473ffffffffffffffffffffffffffffffffffffffff1673ffffffffffffffffffffffffffffffffffffffff163373ffffffffffffffffffffffffffffffffffffffff16146112f4576040517f08c379a00000000000000000000000000000000000000000000000000000000081526004016112eb9061304a565b60405180910390fd5b80600073ffffffffffffffffffffffffffffffffffffffff168173ffffffffffffffffffffffffffffffffffffffff1603611364576040517f08c379a000000000000000000000000000000000000000000000000000000000815260040161135b906130dc565b60405180910390fd5b8160001515600260008373ffffffffffffffffffffffffffffffffffffffff1673ffffffffffffffffffffffffffffffffffffffff16815260200190815260200160002060009054906101000a900460ff161515146113f8576040517f08c379a00000000000000000000000000000000000000000000000000000000081526004016113ef906133e6565b60405180910390fd5b6001600260008573ffffffffffffffffffffffffffffffffffffffff1673ffffffffffffffffffffffffffffffffffffffff16815260200190815260200160002060006101000a81548160ff0219169083151502179055506001839080600181540180825580915050600190039060005260206000200160009091909190916101000a81548173ffffffffffffffffffffffffffffffffffffffff021916908373ffffffffffffffffffffffffffffffffffffffff1602179055508273ffffffffffffffffffffffffffffffffffffffff167ff39e6e1eb0edcf53c221607b54b00cd28f3196fed0a24994dc308b8f611b682d60405160405180910390a2611585600180548060200260200160405190810160405280929190818152602001828054801561157b57602002820191906000526020600020905b8160009054906101000a900473ffffffffffffffffffffffffffffffffffffffff1673ffffffffffffffffffffffffffffffffffffffff1681526020019060010190808311611531575b50505050506127ec565b505050565b60035481565b3360011515600260008373ffffffffffffffffffffffffffffffffffffffff1673ffffffffffffffffffffffffffffffffffffffff16815260200190815260200160002060009054906101000a900460ff16151514611624576040517f08c379a000000000000000000000000000000000000000000000000000000000815260040161161b90613343565b60405180910390fd5b8133600015156008600084815260200190815260200160002060008373ffffffffffffffffffffffffffffffffffffffff1673ffffffffffffffffffffffffffffffffffffffff16815260200190815260200160002060009054906101000a900460ff161515146116ca576040517f08c379a00000000000000000000000000000000000000000000000000000000081526004016116c190613478565b60405180910390fd5b83600015156006600083815260200190815260200160002060000160009054906101000a900460ff16151514611735576040517f08c379a000000000000000000000000000000000000000000000000000000000815260040161172c9061350a565b60405180910390fd5b6006600086815260200190815260200160002060000160019054906101000a900473ffffffffffffffffffffffffffffffffffffffff16600073ffffffffffffffffffffffffffffffffffffffff168173ffffffffffffffffffffffffffffffffffffffff16036117db576040517f08c379a00000000000000000000000000000000000000000000000000000000081526004016117d2906130dc565b60405180910390fd5b60006008600088815260200190815260200160002060003373ffffffffffffffffffffffffffffffffffffffff1673ffffffffffffffffffffffffffffffffffffffff16815260200190815260200160002060006101000a81548160ff021916908315150217905550853373ffffffffffffffffffffffffffffffffffffffff167ff6a317157440607f36269043eb55f1287a5a19ba2216afeab88cd46cbcfb88e960405160405180910390a3505050505050565b60008054906101000a900473ffffffffffffffffffffffffffffffffffffffff1673ffffffffffffffffffffffffffffffffffffffff163373ffffffffffffffffffffffffffffffffffffffff161461191e576040517f08c379a00000000000000000000000000000000000000000000000000000000081526004016119159061304a565b60405180910390fd5b806000806101000a81548173ffffffffffffffffffffffffffffffffffffffff021916908373ffffffffffffffffffffffffffffffffffffffff1602179055508073ffffffffffffffffffffffffffffffffffffffff1660008054906101000a900473ffffffffffffffffffffffffffffffffffffffff1673ffffffffffffffffffffffffffffffffffffffff167ff8ccb027dfcd135e000e9d45e6cc2d662578a8825d4c45b5e32e0adf67e79ec660405160405180910390a350565b60055481565b60008054906101000a900473ffffffffffffffffffffffffffffffffffffffff1673ffffffffffffffffffffffffffffffffffffffff163373ffffffffffffffffffffffffffffffffffffffff1614611a6f576040517f08c379a0000000000000000000000000000000000000000000000000000000008152600401611a669061304a565b60405180910390fd5b60008060006101000a81548173ffffffffffffffffffffffffffffffffffffffff021916908373ffffffffffffffffffffffffffffffffffffffff160217905550600073ffffffffffffffffffffffffffffffffffffffff1660008054906101000a900473ffffffffffffffffffffffffffffffffffffffff1673ffffffffffffffffffffffffffffffffffffffff167ff8ccb027dfcd135e000e9d45e6cc2d662578a8825d4c45b5e32e0adf67e79ec660405160405180910390a3565b60606001805480602002602001604051908101604052809291908181526020018280548015611bb157602002820191906000526020600020905b8160009054906101000a900473ffffffffffffffffffffffffffffffffffffffff1673ffffffffffffffffffffffffffffffffffffffff1681526020019060010190808311611b67575b5050505050905090565b3360011515600260008373ffffffffffffffffffffffffffffffffffffffff1673ffffffffffffffffffffffffffffffffffffffff16815260200190815260200160002060009054906101000a900460ff16151514611c4f576040517f08c379a0000000000000000000000000000000000000000000000000000000008152600401611c4690613343565b60405180910390fd5b8133600015156008600084815260200190815260200160002060008373ffffffffffffffffffffffffffffffffffffffff1673ffffffffffffffffffffffffffffffffffffffff16815260200190815260200160002060009054906101000a900460ff16151514611cf5576040517f08c379a0000000000000000000000000000000000000000000000000000000008152600401611cec90613478565b60405180910390fd5b6006600085815260200190815260200160002060000160019054906101000a900473ffffffffffffffffffffffffffffffffffffffff16600073ffffffffffffffffffffffffffffffffffffffff168173ffffffffffffffffffffffffffffffffffffffff1603611d9b576040517f08c379a0000000000000000000000000000000000000000000000000000000008152600401611d92906130dc565b60405180910390fd5b60016008600087815260200190815260200160002060003373ffffffffffffffffffffffffffffffffffffffff1673ffffffffffffffffffffffffffffffffffffffff16815260200190815260200160002060006101000a81548160ff021916908315150217905550843373ffffffffffffffffffffffffffffffffffffffff167f4a504a94899432a9846e1aa406dceb1bcfd538bb839071d49d1e5e23f5be30ef60405160405180910390a3611e518561239f565b5050505050565b6000600354905090565b60003360011515600260008373ffffffffffffffffffffffffffffffffffffffff1673ffffffffffffffffffffffffffffffffffffffff16815260200190815260200160002060009054906101000a900460ff16151514611ef8576040517f08c379a0000000000000000000000000000000000000000000000000000000008152600401611eef90613343565b60405180910390fd5b600554915060405180608001604052806000151581526020018673ffffffffffffffffffffffffffffffffffffffff168152602001858152602001848152506006600084815260200190815260200160002060008201518160000160006101000a81548160ff02191690831515021790555060208201518160000160016101000a81548173ffffffffffffffffffffffffffffffffffffffff021916908373ffffffffffffffffffffffffffffffffffffffff160217905550604082015181600101556060820151816002019081611fd091906136d6565b50905050600160056000828254611fe791906137a8565b92505081905550817fc0ba8fe4b176c1714197d43b9cc6bcf797a4a7461c5fe8d0ef6e184ae7601e5160405160405180910390a261202482611bbb565b509392505050565b3360011515600260008373ffffffffffffffffffffffffffffffffffffffff1673ffffffffffffffffffffffffffffffffffffffff16815260200190815260200160002060009054906101000a900460ff161515146120c0576040517f08c379a00000000000000000000000000000000000000000000000000000000081526004016120b790613343565b60405180910390fd5b6000600460003373ffffffffffffffffffffffffffffffffffffffff1673ffffffffffffffffffffffffffffffffffffffff168152602001908152602001600020541015612143576040517f08c379a000000000000000000000000000000000000000000000000000000000815260040161213a90613828565b60405180910390fd5b34600460003373ffffffffffffffffffffffffffffffffffffffff1673ffffffffffffffffffffffffffffffffffffffff168152602001908152602001600020819055507fac14eddccc7f589bb98df7506295628deb5f9ec1e570c7b6386c8338e24e9e793334426040516121ba93929190613363565b60405180910390a150565b60066020528060005260406000206000915090508060000160009054906101000a900460ff16908060000160019054906101000a900473ffffffffffffffffffffffffffffffffffffffff1690806001015490806002018054612227906132a0565b80601f0160208091040260200160405190810160405280929190818152602001828054612253906132a0565b80156122a05780601f10612275576101008083540402835291602001916122a0565b820191906000526020600020905b81548152906001019060200180831161228357829003601f168201915b5050505050905084565b600781815481106122ba57600080fd5b90600052602060002090600302016000915090508060000160009054906101000a900460ff16908060000160019054906101000a900473ffffffffffffffffffffffffffffffffffffffff169080600101549080600201805461231c906132a0565b80601f0160208091040260200160405190810160405280929190818152602001828054612348906132a0565b80156123955780601f1061236a57610100808354040283529160200191612395565b820191906000526020600020905b81548152906001019060200180831161237857829003601f168201915b5050505050905084565b3360011515600260008373ffffffffffffffffffffffffffffffffffffffff1673ffffffffffffffffffffffffffffffffffffffff16815260200190815260200160002060009054906101000a900460ff16151514612433576040517f08c379a000000000000000000000000000000000000000000000000000000000815260040161242a90613343565b60405180910390fd5b81600015156006600083815260200190815260200160002060000160009054906101000a900460ff1615151461249e576040517f08c379a00000000000000000000000000000000000000000000000000000000081526004016124959061350a565b60405180910390fd5b60008080600090505b60018054905081101561258657600860008781526020019081526020016000206000600183815481106124dd576124dc6131cb565b5b9060005260206000200160009054906101000a900473ffffffffffffffffffffffffffffffffffffffff1673ffffffffffffffffffffffffffffffffffffffff1673ffffffffffffffffffffffffffffffffffffffff16815260200190815260200160002060009054906101000a900460ff16156125655760018361256291906137a8565b92505b600354831061257357600191505b808061257e906131fa565b9150506124a7565b5080156127c157600060066000878152602001908152602001600020905060018160000160006101000a81548160ff02191690831515021790555060008160000160019054906101000a900473ffffffffffffffffffffffffffffffffffffffff1673ffffffffffffffffffffffffffffffffffffffff1682600101548360020160405161261491906138d6565b60006040518083038185875af1925050503d8060008114612651576040519150601f19603f3d011682016040523d82523d6000602084013e612656565b606091505b5050905080156127735760078290806001815401808255809150506001900390600052602060002090600302016000909190919091506000820160009054906101000a900460ff168160000160006101000a81548160ff0219169083151502179055506000820160019054906101000a900473ffffffffffffffffffffffffffffffffffffffff168160000160016101000a81548173ffffffffffffffffffffffffffffffffffffffff021916908373ffffffffffffffffffffffffffffffffffffffff160217905550600182015481600101556002820181600201908161273e9190613903565b505050867f33e13ecb54c3076d8e8bb8c2881800a4d972b792045ffae98fdf46df365fed7560405160405180910390a26127be565b867f526441bb6c1aba3c9a4a6ca1d6545da9c2333c8c48343ef398eb858d72b7923660405160405180910390a260008260000160006101000a81548160ff0219169083151502179055505b50505b5050505050565b60008054906101000a900473ffffffffffffffffffffffffffffffffffffffff1681565b60006127fa8251603c61284a565b9050612807816064612860565b6003819055507f384e9b7351c55c6f80b4c11bbc3170795d1144ef21814280a8e40ed440875e8d60035460405161283e919061288f565b60405180910390a15050565b6000818361285891906139eb565b905092915050565b6000818361286e9190613a5c565b905092915050565b6000819050919050565b61288981612876565b82525050565b60006020820190506128a46000830184612880565b92915050565b6000604051905090565b600080fd5b600080fd5b6128c781612876565b81146128d257600080fd5b50565b6000813590506128e4816128be565b92915050565b600060208284031215612900576128ff6128b4565b5b600061290e848285016128d5565b91505092915050565b600073ffffffffffffffffffffffffffffffffffffffff82169050919050565b600061294282612917565b9050919050565b61295281612937565b82525050565b600060208201905061296d6000830184612949565b92915050565b61297c81612937565b811461298757600080fd5b50565b60008135905061299981612973565b92915050565b6000602082840312156129b5576129b46128b4565b5b60006129c38482850161298a565b91505092915050565b600081519050919050565b600082825260208201905092915050565b6000819050602082019050919050565b60008115159050919050565b612a0d816129f8565b82525050565b6000612a1e82612917565b9050919050565b612a2e81612a13565b82525050565b612a3d81612876565b82525050565b600081519050919050565b600082825260208201905092915050565b60005b83811015612a7d578082015181840152602081019050612a62565b60008484015250505050565b6000601f19601f8301169050919050565b6000612aa582612a43565b612aaf8185612a4e565b9350612abf818560208601612a5f565b612ac881612a89565b840191505092915050565b6000608083016000830151612aeb6000860182612a04565b506020830151612afe6020860182612a25565b506040830151612b116040860182612a34565b5060608301518482036060860152612b298282612a9a565b9150508091505092915050565b6000612b428383612ad3565b905092915050565b6000602082019050919050565b6000612b62826129cc565b612b6c81856129d7565b935083602082028501612b7e856129e8565b8060005b85811015612bba5784840389528151612b9b8582612b36565b9450612ba683612b4a565b925060208a01995050600181019050612b82565b50829750879550505050505092915050565b60006020820190508181036000830152612be68184612b57565b905092915050565b612bf7816129f8565b82525050565b6000602082019050612c126000830184612bee565b92915050565b60008060408385031215612c2f57612c2e6128b4565b5b6000612c3d8582860161298a565b9250506020612c4e8582860161298a565b9150509250929050565b60008060408385031215612c6f57612c6e6128b4565b5b6000612c7d858286016128d5565b9250506020612c8e8582860161298a565b9150509250929050565b600081519050919050565b600082825260208201905092915050565b6000819050602082019050919050565b612ccd81612937565b82525050565b6000612cdf8383612cc4565b60208301905092915050565b6000602082019050919050565b6000612d0382612c98565b612d0d8185612ca3565b9350612d1883612cb4565b8060005b83811015612d49578151612d308882612cd3565b9750612d3b83612ceb565b925050600181019050612d1c565b5085935050505092915050565b60006020820190508181036000830152612d708184612cf8565b905092915050565b612d8181612a13565b8114612d8c57600080fd5b50565b600081359050612d9e81612d78565b92915050565b600080fd5b600080fd5b7f4e487b7100000000000000000000000000000000000000000000000000000000600052604160045260246000fd5b612de682612a89565b810181811067ffffffffffffffff82111715612e0557612e04612dae565b5b80604052505050565b6000612e186128aa565b9050612e248282612ddd565b919050565b600067ffffffffffffffff821115612e4457612e43612dae565b5b612e4d82612a89565b9050602081019050919050565b82818337600083830152505050565b6000612e7c612e7784612e29565b612e0e565b905082815260208101848484011115612e9857612e97612da9565b5b612ea3848285612e5a565b509392505050565b600082601f830112612ec057612ebf612da4565b5b8135612ed0848260208601612e69565b91505092915050565b600080600060608486031215612ef257612ef16128b4565b5b6000612f0086828701612d8f565b9350506020612f11868287016128d5565b925050604084013567ffffffffffffffff811115612f3257612f316128b9565b5b612f3e86828701612eab565b9150509250925092565b612f5181612a13565b82525050565b600082825260208201905092915050565b6000612f7382612a43565b612f7d8185612f57565b9350612f8d818560208601612a5f565b612f9681612a89565b840191505092915050565b6000608082019050612fb66000830187612bee565b612fc36020830186612f48565b612fd06040830185612880565b8181036060830152612fe28184612f68565b905095945050505050565b600082825260208201905092915050565b7f41646d696e20726573747269637465642066756e6374696f6e00000000000000600082015250565b6000613034601983612fed565b915061303f82612ffe565b602082019050919050565b6000602082019050818103600083015261306381613027565b9050919050565b7f5370656369666965642064657374696e6174696f6e20646f65736e277420657860008201527f6973740000000000000000000000000000000000000000000000000000000000602082015250565b60006130c6602383612fed565b91506130d18261306a565b604082019050919050565b600060208201905081810360008301526130f5816130b9565b9050919050565b7f54686973206f776e657220646f65736e27742065786973740000000000000000600082015250565b6000613132601883612fed565b915061313d826130fc565b602082019050919050565b6000602082019050818103600083015261316181613125565b9050919050565b7f4e487b7100000000000000000000000000000000000000000000000000000000600052601160045260246000fd5b60006131a282612876565b91506131ad83612876565b92508282039050818111156131c5576131c4613168565b5b92915050565b7f4e487b7100000000000000000000000000000000000000000000000000000000600052603260045260246000fd5b600061320582612876565b91507fffffffffffffffffffffffffffffffffffffffffffffffffffffffffffffffff820361323757613236613168565b5b600182019050919050565b7f4e487b7100000000000000000000000000000000000000000000000000000000600052603160045260246000fd5b7f4e487b7100000000000000000000000000000000000000000000000000000000600052602260045260246000fd5b600060028204905060018216806132b857607f821691505b6020821081036132cb576132ca613271565b5b50919050565b7f596f7520617265206e6f7420617574686f72697a656420666f7220746869732060008201527f616374696f6e2e00000000000000000000000000000000000000000000000000602082015250565b600061332d602783612fed565b9150613338826132d1565b604082019050919050565b6000602082019050818103600083015261335c81613320565b9050919050565b60006060820190506133786000830186612949565b6133856020830185612880565b6133926040830184612880565b949350505050565b7f54686973206f776e657220616c72656164792065786973747300000000000000600082015250565b60006133d0601983612fed565b91506133db8261339a565b602082019050919050565b600060208201905081810360008301526133ff816133c3565b9050919050565b7f596f75206861766520616c726561647920636f6e6669726d656420746869732060008201527f74786e2e00000000000000000000000000000000000000000000000000000000602082015250565b6000613462602483612fed565b915061346d82613406565b604082019050919050565b6000602082019050818103600083015261349181613455565b9050919050565b7f546869732074786e2068617320616c7265616479206265656e2065786563757460008201527f65642e0000000000000000000000000000000000000000000000000000000000602082015250565b60006134f4602383612fed565b91506134ff82613498565b604082019050919050565b60006020820190508181036000830152613523816134e7565b9050919050565b60008190508160005260206000209050919050565b60006020601f8301049050919050565b600082821b905092915050565b60006008830261358c7fffffffffffffffffffffffffffffffffffffffffffffffffffffffffffffffff8261354f565b613596868361354f565b95508019841693508086168417925050509392505050565b6000819050919050565b60006135d36135ce6135c984612876565b6135ae565b612876565b9050919050565b6000819050919050565b6135ed836135b8565b6136016135f9826135da565b84845461355c565b825550505050565b600090565b613616613609565b6136218184846135e4565b505050565b5b818110156136455761363a60008261360e565b600181019050613627565b5050565b601f82111561368a5761365b8161352a565b6136648461353f565b81016020851015613673578190505b61368761367f8561353f565b830182613626565b50505b505050565b600082821c905092915050565b60006136ad6000198460080261368f565b1980831691505092915050565b60006136c6838361369c565b9150826002028217905092915050565b6136df82612a43565b67ffffffffffffffff8111156136f8576136f7612dae565b5b61370282546132a0565b61370d828285613649565b600060209050601f831160018114613740576000841561372e578287015190505b61373885826136ba565b8655506137a0565b601f19841661374e8661352a565b60005b8281101561377657848901518255600182019150602085019450602081019050613751565b86831015613793578489015161378f601f89168261369c565b8355505b6001600288020188555050505b505050505050565b60006137b382612876565b91506137be83612876565b92508282019050808211156137d6576137d5613168565b5b92915050565b7f63616e6e6f74206465706f7369697420612063616c7565206f66203000000000600082015250565b6000613812601c83612fed565b915061381d826137dc565b602082019050919050565b6000602082019050818103600083015261384181613805565b9050919050565b600081905092915050565b60008154613860816132a0565b61386a8186613848565b94506001821660008114613885576001811461389a576138cd565b60ff19831686528115158202860193506138cd565b6138a38561352a565b60005b838110156138c5578154818901526001820191506020810190506138a6565b838801955050505b50505092915050565b60006138e28284613853565b915081905092915050565b6000815490506138fc816132a0565b9050919050565b8181036139115750506139e9565b61391a826138ed565b67ffffffffffffffff81111561393357613932612dae565b5b61393d82546132a0565b613948828285613649565b6000601f8311600181146139775760008415613965578287015490505b61396f85826136ba565b8655506139e2565b601f1984166139858761352a565b96506139908661352a565b60005b828110156139b857848901548255600182019150600185019450602081019050613993565b868310156139d557848901546139d1601f89168261369c565b8355505b6001600288020188555050505b5050505050505b565b60006139f682612876565b9150613a0183612876565b9250828202613a0f81612876565b91508282048414831517613a2657613a25613168565b5b5092915050565b7f4e487b7100000000000000000000000000000000000000000000000000000000600052601260045260246000fd5b6000613a6782612876565b9150613a7283612876565b925082613a8257613a81613a2d565b5b82820490509291505056fea26469706673582212209efff1ddd78d16aec6d8c02668c986cbd0f9e8723f0d49332e89ec06ee58b3e664736f6c63430008110033",
  "linkReferences": {},
  "deployedLinkReferences": {}
}